{
  "contractName": "Voting",
  "abi": [
    {
      "inputs": [
        {
          "internalType": "string[]",
          "name": "candidateNames",
          "type": "string[]"
        }
      ],
      "stateMutability": "nonpayable",
      "type": "constructor"
    },
    {
      "inputs": [
        {
          "internalType": "uint256",
          "name": "",
          "type": "uint256"
        }
      ],
      "name": "candidateList",
      "outputs": [
        {
          "internalType": "string",
          "name": "",
          "type": "string"
        }
      ],
      "stateMutability": "view",
      "type": "function",
      "constant": true
    },
    {
      "inputs": [
        {
          "internalType": "address",
          "name": "",
          "type": "address"
        }
      ],
      "name": "voters",
      "outputs": [
        {
          "internalType": "bool",
          "name": "",
          "type": "bool"
        }
      ],
      "stateMutability": "view",
      "type": "function",
      "constant": true
    },
    {
      "inputs": [
        {
          "internalType": "string",
          "name": "",
          "type": "string"
        }
      ],
      "name": "votesReceived",
      "outputs": [
        {
          "internalType": "uint256",
          "name": "",
          "type": "uint256"
        }
      ],
      "stateMutability": "view",
      "type": "function",
      "constant": true
    },
    {
      "inputs": [
        {
          "internalType": "string",
          "name": "candidate",
          "type": "string"
        }
      ],
      "name": "voteForCandidate",
      "outputs": [],
      "stateMutability": "nonpayable",
      "type": "function"
    },
    {
      "inputs": [
        {
          "internalType": "string",
          "name": "candidate",
          "type": "string"
        }
      ],
      "name": "totalVotesFor",
      "outputs": [
        {
          "internalType": "uint256",
          "name": "",
          "type": "uint256"
        }
      ],
      "stateMutability": "view",
      "type": "function",
      "constant": true
    },
    {
      "inputs": [
        {
          "internalType": "string",
          "name": "candidate",
          "type": "string"
        }
      ],
      "name": "isValidCandidate",
      "outputs": [
        {
          "internalType": "bool",
          "name": "",
          "type": "bool"
        }
      ],
      "stateMutability": "view",
      "type": "function",
      "constant": true
    }
  ],
  "bytecode": "0x60806040523480156200001157600080fd5b50604051620010d3380380620010d3833981810160405281019062000037919062000475565b80600290805190602001906200004f92919062000057565b50506200052a565b828054828255906000526020600020908101928215620000ab579160200282015b82811115620000aa57825182908051906020019062000099929190620000be565b509160200191906001019062000078565b5b509050620000ba91906200014f565b5090565b828054620000cc90620004f5565b90600052602060002090601f016020900481019282620000f057600085556200013c565b82601f106200010b57805160ff19168380011785556200013c565b828001600101855582156200013c579182015b828111156200013b5782518255916020019190600101906200011e565b5b5090506200014b919062000177565b5090565b5b8082111562000173576000818162000169919062000196565b5060010162000150565b5090565b5b808211156200019257600081600090555060010162000178565b5090565b508054620001a490620004f5565b6000825580601f10620001b85750620001d9565b601f016020900490600052602060002090810190620001d8919062000177565b5b50565b6000604051905090565b600080fd5b600080fd5b600080fd5b6000601f19601f8301169050919050565b7f4e487b7100000000000000000000000000000000000000000000000000000000600052604160045260246000fd5b6200024082620001f5565b810181811067ffffffffffffffff8211171562000262576200026162000206565b5b80604052505050565b600062000277620001dc565b905062000285828262000235565b919050565b600067ffffffffffffffff821115620002a857620002a762000206565b5b602082029050602081019050919050565b600080fd5b600080fd5b600067ffffffffffffffff821115620002e157620002e062000206565b5b620002ec82620001f5565b9050602081019050919050565b60005b8381101562000319578082015181840152602081019050620002fc565b8381111562000329576000848401525b50505050565b6000620003466200034084620002c3565b6200026b565b905082815260208101848484011115620003655762000364620002be565b5b62000372848285620002f9565b509392505050565b600082601f830112620003925762000391620001f0565b5b8151620003a48482602086016200032f565b91505092915050565b6000620003c4620003be846200028a565b6200026b565b90508083825260208201905060208402830185811115620003ea57620003e9620002b9565b5b835b818110156200043857805167ffffffffffffffff811115620004135762000412620001f0565b5b8086016200042289826200037a565b85526020850194505050602081019050620003ec565b5050509392505050565b600082601f8301126200045a5762000459620001f0565b5b81516200046c848260208601620003ad565b91505092915050565b6000602082840312156200048e576200048d620001e6565b5b600082015167ffffffffffffffff811115620004af57620004ae620001eb565b5b620004bd8482850162000442565b91505092915050565b7f4e487b7100000000000000000000000000000000000000000000000000000000600052602260045260246000fd5b600060028204905060018216806200050e57607f821691505b602082108103620005245762000523620004c6565b5b50919050565b610b99806200053a6000396000f3fe608060405234801561001057600080fd5b50600436106100625760003560e01c80634a3bf3771461006757806351b9887d146100975780638d4b44d9146100c7578063a3ec138d146100f7578063b13c744b14610127578063e89927ef14610157575b600080fd5b610081600480360381019061007c9190610646565b610173565b60405161008e91906106a8565b60405180910390f35b6100b160048036038101906100ac9190610646565b6101e3565b6040516100be91906106de565b60405180910390f35b6100e160048036038101906100dc9190610646565b610290565b6040516100ee91906106a8565b60405180910390f35b610111600480360381019061010c9190610757565b6102be565b60405161011e91906106de565b60405180910390f35b610141600480360381019061013c91906107b0565b6102de565b60405161014e9190610865565b60405180910390f35b610171600480360381019061016c9190610646565b61038a565b005b600061017e826101e3565b6101bd576040517f08c379a00000000000000000000000000000000000000000000000000000000081526004016101b4906108d3565b60405180910390fd5b6001826040516101cd919061092f565b9081526020016040518091039020549050919050565b600080600090505b600280549050811015610285576002818154811061020c5761020b610946565b5b906000526020600020016040516020016102269190610a69565b604051602081830303815290604052805190602001208360405160200161024d919061092f565b604051602081830303815290604052805190602001200361027257600191505061028b565b808061027d90610aaf565b9150506101eb565b50600090505b919050565b6001818051602081018201805184825260208301602085012081835280955050505050506000915090505481565b60006020528060005260406000206000915054906101000a900460ff1681565b600281815481106102ee57600080fd5b906000526020600020016000915090508054610309906109a4565b80601f0160208091040260200160405190810160405280929190818152602001828054610335906109a4565b80156103825780601f1061035757610100808354040283529160200191610382565b820191906000526020600020905b81548152906001019060200180831161036557829003601f168201915b505050505081565b6000803373ffffffffffffffffffffffffffffffffffffffff1673ffffffffffffffffffffffffffffffffffffffff16815260200190815260200160002060009054906101000a900460ff1615610416576040517f08c379a000000000000000000000000000000000000000000000000000000000815260040161040d90610b43565b60405180910390fd5b61041f816101e3565b61045e576040517f08c379a0000000000000000000000000000000000000000000000000000000008152600401610455906108d3565b60405180910390fd5b60018160405161046e919061092f565b9081526020016040518091039020600081548092919061048d90610aaf565b919050555060016000803373ffffffffffffffffffffffffffffffffffffffff1673ffffffffffffffffffffffffffffffffffffffff16815260200190815260200160002060006101000a81548160ff02191690831515021790555050565b6000604051905090565b600080fd5b600080fd5b600080fd5b600080fd5b6000601f19601f8301169050919050565b7f4e487b7100000000000000000000000000000000000000000000000000000000600052604160045260246000fd5b6105538261050a565b810181811067ffffffffffffffff821117156105725761057161051b565b5b80604052505050565b60006105856104ec565b9050610591828261054a565b919050565b600067ffffffffffffffff8211156105b1576105b061051b565b5b6105ba8261050a565b9050602081019050919050565b82818337600083830152505050565b60006105e96105e484610596565b61057b565b90508281526020810184848401111561060557610604610505565b5b6106108482856105c7565b509392505050565b600082601f83011261062d5761062c610500565b5b813561063d8482602086016105d6565b91505092915050565b60006020828403121561065c5761065b6104f6565b5b600082013567ffffffffffffffff81111561067a576106796104fb565b5b61068684828501610618565b91505092915050565b6000819050919050565b6106a28161068f565b82525050565b60006020820190506106bd6000830184610699565b92915050565b60008115159050919050565b6106d8816106c3565b82525050565b60006020820190506106f360008301846106cf565b92915050565b600073ffffffffffffffffffffffffffffffffffffffff82169050919050565b6000610724826106f9565b9050919050565b61073481610719565b811461073f57600080fd5b50565b6000813590506107518161072b565b92915050565b60006020828403121561076d5761076c6104f6565b5b600061077b84828501610742565b91505092915050565b61078d8161068f565b811461079857600080fd5b50565b6000813590506107aa81610784565b92915050565b6000602082840312156107c6576107c56104f6565b5b60006107d48482850161079b565b91505092915050565b600081519050919050565b600082825260208201905092915050565b60005b838110156108175780820151818401526020810190506107fc565b83811115610826576000848401525b50505050565b6000610837826107dd565b61084181856107e8565b93506108518185602086016107f9565b61085a8161050a565b840191505092915050565b6000602082019050818103600083015261087f818461082c565b905092915050565b7f4e6f7420612076616c69642063616e6469646174652100000000000000000000600082015250565b60006108bd6016836107e8565b91506108c882610887565b602082019050919050565b600060208201905081810360008301526108ec816108b0565b9050919050565b600081905092915050565b6000610909826107dd565b61091381856108f3565b93506109238185602086016107f9565b80840191505092915050565b600061093b82846108fe565b915081905092915050565b7f4e487b7100000000000000000000000000000000000000000000000000000000600052603260045260246000fd5b7f4e487b7100000000000000000000000000000000000000000000000000000000600052602260045260246000fd5b600060028204905060018216806109bc57607f821691505b6020821081036109cf576109ce610975565b5b50919050565b60008190508160005260206000209050919050565b600081546109f7816109a4565b610a0181866108f3565b94506001821660008114610a1c5760018114610a2d57610a60565b60ff19831686528186019350610a60565b610a36856109d5565b60005b83811015610a5857815481890152600182019150602081019050610a39565b838801955050505b50505092915050565b6000610a7582846109ea565b915081905092915050565b7f4e487b7100000000000000000000000000000000000000000000000000000000600052601160045260246000fd5b6000610aba8261068f565b91507fffffffffffffffffffffffffffffffffffffffffffffffffffffffffffffffff8203610aec57610aeb610a80565b5b600182019050919050565b7f596f75206861766520616c726561647920766f74656421000000000000000000600082015250565b6000610b2d6017836107e8565b9150610b3882610af7565b602082019050919050565b60006020820190508181036000830152610b5c81610b20565b905091905056fea264697066735822122081f2f79209aeb23fa12dd9472da8428f8f8b2c752e269a6608b188a9787853ef64736f6c634300080d0033",
  "immutableReferences": {},
  "source": "\npragma solidity ^0.8.0;\n\ncontract Voting {\n    mapping(address => bool) public voters;\n    mapping(string => uint256) public votesReceived;\n    string[] public candidateList;\n\n    constructor(string[] memory candidateNames) {\n        candidateList = candidateNames;\n    }\n\n    function voteForCandidate(string memory candidate) public {\n        require(!voters[msg.sender], \"You have already voted!\");\n        require(isValidCandidate(candidate), \"Not a valid candidate!\");\n        votesReceived[candidate]++;\n        voters[msg.sender] = true;\n    }\n\n    function totalVotesFor(string memory candidate) public view returns (uint256) {\n        require(isValidCandidate(candidate), \"Not a valid candidate!\");\n        return votesReceived[candidate];\n    }\n\n    function isValidCandidate(string memory candidate) public view returns (bool) {\n        for (uint i = 0; i < candidateList.length; i++) {\n            if (keccak256(abi.encodePacked(candidate)) == keccak256(abi.encodePacked(candidateList[i]))) {\n                return true;\n            }\n        }\n        return false;\n    }\n}\n",
  "sourcePath": "/Users/karthikreddy/Downloads/voting-system/contracts/Voting.sol",
  "compiler": {
    "name": "solc",
    "version": "0.8.13+commit.abaa5c0e.Emscripten.clang"
  },
  "schemaVersion": "3.4.16",
  "updatedAt": "2025-11-28T17:33:34.774Z",
  "networkType": "ethereum",
  "devdoc": {
    "kind": "dev",
    "methods": {},
    "version": 1
  },
  "userdoc": {
    "kind": "user",
    "methods": {},
    "version": 1
  }
}